:020000008C2949
:10000600803083120313950088010B30FB002630E5
:10001600FC005D30FD00FD0B0E28FC0B0E28FB0BD3
:0A0026000E2800000000A2010800EF
:100030008030831203138800A701A8018030950047
:1000400002300505F1007108003A031D4728003011
:100050002806031D2D2800302706031D36280130F1
:10006000A7000030A800403095003A28A701A80159
:10007000BF3095000930FB00A030FC00C330FD000C
:10008000FD0B4028FC0B4028FB0B402820280320B8
:02009000080066
:10009200013083120313A60007140A3088000800F7
:1000A200FE3083120313870588010830FC00C93033
:1000B200FD00FD0B5A28FC0B5A2800000000A60187
:0200C200080034
:1000C400831203132D08F1002E08F200F10DF20D36
:1000D4007110F10DF20D7110F10DF20D7110710826
:1000E400AD007208AE0001309F0004301F04F00020
:1000F400710870049F001F1D80287D281E08F100D0
:0E010400F00183161E08F0040030F10408001C
:10011200013083120313A900AA01AB01AC014920EB
:1001220029080319B328AD01AE01622070088312B9
:10013200AB007108AC007108003C031DA2287008D6
:10014200963C031CA828A9010130AA00B22803305A
:100152002C02031DAE2884302B02031CB228A901F5
:10016200AA0191282A08013A031DB9280130A200E8
:1001720051200630FB001330FC00AD30FD00FD0BBA
:10018200C028FC0BC028FB0BC0280000000022087E
:0A019200013A031DCD2818200800D3
:10019C00013083120313A6000714A001A101013042
:1001AC00880000302102031DDD287830200203185E
:1001BC00ED28A00A0319A10A0830FC00C930FD0083
:1001CC00FD0BE628FC0BE62800000000D728512088
:0201DC00080019
:1001DE00013083120313A6000714A001A1010430FD
:1001EE00880000302102031DFE28783020020318FB
:1001FE000E29A00A0319A10A0830FC00C930FD001F
:10020E00FD0B0729FC0B072900000000F8285120E0
:02021E000800D6
:100220000230831203130505F1007108003A031D23
:100230001B298920462904300505F1007108003A80
:10024000031D3329CE200430FB000C30FC0033307A
:10025000FD00FD0B2929FC0B2929FB0B2929000096
:100260000000CE20462908300505F1007108003A4B
:10027000031D3C29EF20462910300505F1007108C7
:0E028000003A031D4529CE20462951200800D2
:10028E000130831203139F00CE3083169F00FF3080
:04029E0085000800CF
:1002A20080308312031395000C30970007309200C0
:0202B200080042
:1002B400831203132608003A031D65292208003A15
:0802C400031D6529102108004B
:1002CC0047218730810586018312860183168701B9
:1002DC008312870183168801831288010630FB0084
:1002EC001330FC00AD30FD00FD0B7A29FC0B7A2994
:1002FC00FB0B7A29000000005121A001A101A601ED
:0C030C00A2010130A300A701A801080015
:1003180066210830FB009D30FC000530FD00FD0B18
:100328009329FC0B9329FB0B9329000000005A2109
:040338009B299D2937
:02400E004A2F37
:00000001FF
